:020000040000FA
:040000000DEF00F010
:020008001000E6
:0800180010000E0E946E946AB4
:10002000956A936A836AFFEC00F082B067D0836AB6
:1000300082B281D0836AF9D71FEC00F0F6D70FECBB
:1000400001F06BEC00F07AEC00F081A202D0CAEC77
:1000500000F06EEC00F081A002D0D1EC00F06EEC6C
:1000600000F081A202D0D6EC00F06EEC00F081A48A
:1000700002D0DBEC00F072EC00F081A002D0DFECEB
:1000800000F072EC00F081A202D0E3EC00F072EC20
:1000900000F081A402D0E7EC00F076EC00F081A043
:1000A00002D0EBEC00F076EC00F081A202D0EFEC95
:1000B00000F076EC00F081A402D0F3EC00F07AECD2
:1000C00000F081A002D0F7EC00F07AEC00F081A4FF
:1000D000FCD7FBEC00F00E0E936E12008186819827
:1000E000819A819C81968188819A819C8196819850
:1000F000818A819C81968198819A818C410E836E40
:10010000C3EC00F0460E836EC3EC00F0490E836E24
:10011000C3EC00F0510E836EC3EC00F0410E836E11
:10012000C3EC00F0480E836EC3EC00F0010E836E4A
:10013000BCEC00F07AD7440E836EC3EC00F0450EA1
:10014000836EC3EC00F0390E836EC3EC00F0360E04
:10015000836EC3EC00F0350E836EC3EC00F0380EF6
:10016000836EC3EC00F0380E836EC3EC00F0010E1A
:10017000836EBCEC00F05CD78298829A828C1FEC74
:1001800001F0829C12008288829A828C1FEC01F01E
:10019000829C1200BCEC00F0300E836EC3EC00F0C9
:1001A0001200310E836EC3EC00F01200320E836E2B
:1001B000C3EC00F01200330E836EC3EC00F0340E7B
:1001C000836EC3EC00F0350E836EC3EC00F0360E88
:1001D000836EC3EC00F0370E836EC3EC00F0380E74
:1001E000836EC3EC00F0390E836EC3EC00F02A0E70
:1001F000836EC3EC00F0230E836EC3EC00F0380E68
:10020000836EBCEC00F00F0E836EBCEC00F0010EB0
:10021000836EBCEC00F0800E836EBCEC00F0C00E70
:10022000836EBCEC00F00F0E836EBCEC00F0010E90
:10023000836EBCEC00F0800E836EBCEC00F0500EC0
:10024000016EFA0E006E00000000000000000000C9
:10025000000000000000000000000000000000009E
:10026000000000000000000000000000000000008E
:10027000000000000000000000000000000000007E
:10028000000000000000000000000000000000006E
:10029000000000000000000000000000000000005E
:1002A000000000000000000000000000000000004E
:1002B000000000000000000000000000000000003E
:1002C000000000000000000000000000000000002E
:1002D000000000000000000000000000000000001E
:1002E000000000000000000000000000000000000E
:1002F00000000000000000000000000000000000FE
:1003000000000000000000000000000000000000ED
:1003100000000000000000000000000000000000DD
:1003200000000000000000000000000000000000CD
:1003300000000000000000000000000000000000BD
:1003400000000000000000000000000000000000AD
:10035000000000000000000000000000000000009D
:10036000000000000000000000000000000000008D
:10037000000000000000000000000000000000007D
:10038000000000000000000000000000000000006D
:10039000000000000000000000000000000000005D
:1003A000000000000000000000000000000000004D
:1003B000000000000000000000000000000000003D
:1003C000000000000000000000000000000000002D
:1003D000000000000000000000000000000000001D
:1003E000000000000000000000000000000000000D
:1003F00000000000000000000000000000000000FD
:1004000000000000000000000000000000000000EC
:1004100000000000000000000000000000000000DC
:1004200000000000000000000000000000000000CC
:1004300000000000002E07D7012E03D70000120095
:00000001FF
